:100000006F00604E00000000320100003601000069
:1000100000000000000000000000000000000000E0
:1000200000000000000000000000000000000000D0
:10003000B404000000000000B6040000000000004E
:10004000B8040000BA040000BC040000BE040000B4
:10005000C0040000C2040000C4040000C604000084
:10006000C8040000CA040000CC040000CE04000054
:10007000D0040000D204000062030000E803000086
:10008000D8040000DA040000DC040000DE040000F4
:10009000E0040000E2040000E404000000000000AE
:1000A000511126C022C206C4828282441244A24058
:1000B00031018280634E050263C305042E86AA8542
:1000C0007D5515C285466378B6006356C0000606A6
:1000D0008606E36CB6FE014563E4C500918D558D3F
:1000E00085820582F5FA82808682C93F2E858282CA
:1000F0003305A04063D70500B305B040C1B7B305D1
:10010000B0408682653F3305A0408282868263C705
:100110000500634905005D372E858282B305B04036
:10012000E35B05FE3305A040513F3305B0408282BA
:1001300000007300203001A0EFF29FF6130141FD93
:100140002AC62EC413055003854502C802CA02CC34
:1001500002CE02D002D202D44525854537052000C3
:100160005D2D09449147F1440C0837150140FC808E
:1001700026CC22CADD2E0C0837150140E08026CCA3
:1001800022CAE526B717014013850780930480042F
:100190000C08E08026CC22CAC92E05470D440C0865
:1001A00037150140F8803AC226CC22CA7D2EC144C0
:1001B000A1460C0837150140F48026CC22CA7526CA
:1001C000930680020C0837150140E48036CC22CA21
:1001D000692E930600020C0837150140F48036C0E2
:1001E00026CC22CA592693050004EC80371501401D
:1001F0000C0826CC22CA952E93050008EC803715F2
:1002000001400C0826CC22CA8D261247B7170140A0
:100210000C0813850740F88026CC22CAB926324341
:1002200022463754004093070040B7040040231390
:10023000F1026C089167130504401ACE2312C10223
:100240002314F10226D03921130504408545F929EC
:10025000814513050440FD21035744408246B7E71A
:1002600000E0136707402312E4400357444013673C
:1002700007202312E440035744401367071023125A
:10028000E44023A09710238FD7403707008023A096
:10029000E7101301C10211BDEFF29FE07111592B5C
:1002A0003725060093058006130505A8713501461C
:1002B0009305000837150140492E054693050002B5
:1002C00037150140592605469305000437150140AE
:1002D000AD2E371501400146854513050540B5266D
:1002E0000546A145371501408D2637040020854578
:1002F00037150140B126B71401402AC0894513853E
:1003000004803D2E82470605930500025D8D13751E
:10031000F50F9307840288A3902337150140098ABB
:100320002D26C14537150140212E09CD05468545AD
:1003300013850440192E0546930500083715014022
:10034000292675B70146854513850440FD2C0146D5
:100350009305000837150140CD2C05469305000490
:10036000F1BF130141FD3AC23757004022CC36C4D9
:1003700003544741835687418356074042043EC099
:1003800006D416D21AD01ECE2ACA2EC832C6418032
:1003900093E60640930707402310D74013770404E1
:1003A00011CB922B93050004371501407D1633368F
:1003B000C000612C1374040809C8B707002003C7E4
:1003C0008702B75700402398E7406244A2509252F8
:1003D0000253F2435245C2453246A2461247824773
:1003E0001301C10273002030511136C4B7560040CA
:1003F0003EC083D746413AC2C207C18313F70710F4
:1004000019CB93860640DA2A420741831377F7EF28
:1004100042074183DAAA13F7072009CFB7560040F5
:1004200003D74641420741831377F7DF42074183F1
:10043000239AE64093F7074089CF37570040835708
:100440004741C207C18393F7F7BFC207C183231A8D
:10045000F740A24612478247310173002030B71798
:1004600002409843B706FFFC1367170098C3D843B0
:10047000758FD8C39843B706F7FEFD16758F98C3DE
:100480009843B706FCFFFD16758F98C3D843C17615
:10049000FD16758FD8C337079F0098C737270240CE
:1004A0001443F19A14C3144314C3D843D8C38280AD
:1004B00001A001A001A001A001A001A001A001A034
:1004C00001A001A001A001A001A001A001A001A024
:1004D00001A001A001A001A001A001A001A001A014
:1004E00001A001A001A09701002093812134138174
:1004F00081FD170500001305E5379705002093855A
:1005000065B017060020130666B263FAC5008322A1
:10051000050023A0550011059105E3EAC5FE170566
:1005200000201305A5B0938581806377B500232053
:1005300005001105E36DB5FE9302000873900230CB
:100540008D4273904280970200009382A2AB93E2A7
:10055000320073905230EFF09FF0970200009382C8
:10056000E2D373901234730020309C45611122C293
:1005700026C013F7070113F3F70001C7D84133630F
:10058000E30092211377F60F29C783230500014763
:1005900013048002930480048546B395E600B37685
:1005A000B6006392D50293122700BD46B39656005B
:1005B00093C6F6FFB3F37600B3125300B3E37200B1
:1005C000639787064CC90507A146E317D7FC23208C
:1005D00075001307F00F6378C70483234500A14615
:1005E00013048002930480040547B312D7003377C5
:1005F00056006394E202139726000117BD45B39598
:10060000E50093C5F5FFB3F375003317E300B3635B
:10061000770063928702232A550085064147E395B8
:10062000E6FC232275001244824421018280E39C6F
:1006300097F80CC949BFE39297FE23285500F1BFF4
:1006400008456D8D3335A000828019C20CC98280A7
:100650004CC98280EFF2DFA4111146212A842800C0
:100660002EC0F528C246C204C18093F404FCB745ED
:100670000F00938505243685C20436C2C1803D3CF7
:10068000458D420541814AA01E209246C207C18382
:10069000F99BC207C1831EA082479043E1679387FD
:1006A000076A9315160063E4C7043685013CAA87E0
:1006B0004205418191466373D50091471395070127
:1006C00041814AAC1E20024793E717001EA01E205E
:1006D00056233227C207C183D18E93F757BFD58FD8
:1006E0001EA016275E27D58F1EA471017DBA8247F2
:1006F000EA23B167FD17631FF500B29536857D3A91
:10070000420541819317450199E313651500A167DF
:100710005D8D45BFB387C5008E07B385C70036859D
:10072000713A4205418191675D8DE9BF1E2189C5FE
:1007300093E717001EA18280C207C183F99BC207FD
:10074000C183CDBF1E2189E593E707081EA18280E2
:10075000C207C18393F7F7F7C207C183C5BFEFF2A2
:100760003F94371702405C4391462A84B18B6385DE
:10077000D700A146638CD706B7376E019387076011
:100780001CC0B7160240DC42918313F7F700B7078D
:10079000002093878701BA978C23DC42184093F599
:1007A000F50F93F707083355B70099E33A853932C7
:1007B00048C008C448C4B7170240DC43AD83FD8B72
:1007C00013D737008A07F18BD98F93F637010D477E
:1007D0006373D700D1173707002013074700BA9774
:1007E0008C23EFF0BF8D08C86FF03F8C5C43B77768
:1007F000DC02938707C069B799C5371702401C4FC1
:100800005D8D08CF8280B7170240984F1345F5FFE2
:10081000798D88CF828099C5371702405C4F5D8DF6
:1008200048CF8280B7170240D84F1345F5FF798D26
:10083000C8CF8280EFF2DF86B707002003A507004C
:10084000B7157A0093850520EFF05F871375F50FD4
:10085000B70700202386A70293175500898F8A07C0
:100860003E950E05B70700202395A7026FF0FF8382
:1008700000366E010204060804080C100810182047
:100880001020304020406080010203040506070864
:0808900001020304050607083C
:00000001FF
